:020000022000DC
:1070000000000420757302005D7302005F730200CC
:1070100061730200637302006573020000000000E8
:107020000000000000000000000000006773020084
:1070300069730200000000006B7302006D730200B0
:10704000D1D602006F7302001DBE02006F730200F2
:107050006F7302006F730200A1BC020041BE020008
:107060006F7302006F7302006F7302006F73020090
:107070006F7302006F7302006F7302006F73020080
:10708000E1D60200C97C02006F7302006F73020038
:107090006F7302006F730200653803006F730200A4
:1070A0006F7302006F7302006F7302006F73020050
:1070B0006F7302006F730200000000000000000008
:1070C0006F7302006F7302006F7302006F73020030
:1070D0006F7302006F7302006F7302000DD1020024
:1070E0006F7302006F7302006F73020000000000F4
:1070F000000000006F730200000000006F730200C8
:10710000000000000000000000000000000000007F
:10711000000000000000000000000000000000006F
:10712000000000000000000000000000000000005F
:10713000000000000000000000000000000000004F
:10714000000000000000000000000000000000003F
:10715000000000000000000000000000000000002F
:10716000000000000000000000000000000000001F
:10717000000000000000000000000000000000000F
:1071800000000000000000000000000000000000FF
:1071900000000000000000000000000000000000EF
:1071A00000000000000000000000000000000000DF
:1071B00000000000000000000000000000000000CF
:1071C00000000000000000000000000000000000BF
:1071D00000000000000000000000000000000000AF
:1071E000000000000000000000000000000000009F
:1071F000000000000000000000000000000000008F
:10720000354936480A1A02D0072291438D4634493F
:1072100034480A1A06D00722914381F309880222D2
:1072200082F3148830483149314A00F044F831483B
:107230003149324A00F03FF831483249324A00F0D1
:107240003AF832483249334A00F035F83248334987
:10725000334A00F030F833483349344A00F02BF811
:1072600033483449344A00F026F83448344900227F
:1072700000F02CF833483449002200F027F8334856
:107280003349091A082902DB002202604160314AB1
:1072900090471F481F49884205D00268043003B454
:1072A000904703BCF7E700208646EC46002000210B
:1072B000294A9047FEE7884207D0521A05D0037842
:1072C00001300B700131013AF9D17047884202D088
:1072D00002700130FAE770470000042000E003204C
:1072E0000000042000000420685B030074220020DA
:1072F000042B0020D0730200D0730200C45303009B
:10730000685B030074220020742200201C550300D7
:107310001C5503001C5503001C5503001C5503009D
:107320001C5503001C5503001C550300685B03003B
:10733000F8630300042B0020042B0020042B002002
:10734000FA510020FC510020FC510020FC5100208B
:10735000FC7100209D730200E5D70200FEE7FEE706
:10736000FEE7FEE7FEE7FEE7FEE7FEE7FEE7FEE7F5
:1073700000F002B8FFF7FCBF0F484FF00701884349
:1073800085460E4880470E48016841F4700101604F
:10739000BFF34F8FBFF36F8FFFF732BF09480A4922
:1073A0000A4A884207D0521A05D0037801300B7080
:1073B0000131013AF9D17047000004202DB70200D5
:1073C00088ED00E0085503006022002074220020B0
:1073D0001FB50021039001AA44F20100CDE901117B
:1073E00000F004F805B05DF804FB000072B6094B2C
:1073F000D3F8F020D20700D500BEBFF34F8FD96875
:10740000054A01F4E0610A43DA60BFF34F8F00BF21
:10741000FDE700BF00ED00E00400FA054B1C30B5AD
:10742000DB00044612F003009BB20DD1074D2A6029
:107430001A44074B1A60074B1870074B1870074B1C
:107440001C80074B198030BD0720FCE70C2B002067
:10745000082B0020042B0020142B0020102B0020D0
:10746000122B00202DE9F743DFF8BC80B8F800307C
:107470008B4206460D46174647D300240DF1070000
:107480008DF8074000F0B0FA224B234A23481B78BE
:10749000008892F800C084455FFA8CF138BF4C1C1C
:1074A000DBB238BFE4B2A34228D014781178CBB253
:1074B000884286BF0133DBB2002313709DF80700BA
:1074C00000F0B6FA4FF6FF739C4220D0144B1B68B5
:1074D00043F8347003EBC4099EB195B1114BB8F871
:1074E00000001B682A46314604FB00300DF00EFFF9
:1074F000A9F80450002003B0BDE8F0834FF6FF74F4
:10750000DCE70020A9F80400F5E70920F3E70420F0
:10751000F1E700BF142B0020042B0020122B0020C9
:107520000C2B0020082B0020102B002070B5104CD5
:10753000104D22782B789A4200D170BD0E480F4A28
:107540002378126806880E4802EBC301006852F8DF
:107550003320898803FB060090470A49227809886E
:10756000D3B2914286BF0133DBB200232370E0E740
:10757000142B0020042B0020102B00200C2B0020AB
:10758000082B0020122B002010B5D0E90243D1E9CE
:107590000202A04272EB03032CBF0120002010BDA9
:1075A000D0E900301847000008B50A4800F075FB24
:1075B000094AD2E90031C018084BD3E9002341F150
:1075C0000001904271EB030303D210F1807041F18E
:1075D000000108BD74220020202B0020982B0020E1
:1075E00037B505460C460A4801A901F04EFB60B1CB
:1075F0000570446001A9064801F071FB18B1054807
:1076000000F050FB002003B030BD0420FBE700BFBA
:10761000842B0020742200207FB52E4B1D78044659
:107620001DB90025284604B070BD0028F9D0FFF729
:10763000BBFFD4E902239042994143D3002302A81F
:107640008DF8083000F0D0F923692BB94FF0FF32E4
:107650004FF0FF33C4E902239DF8080000F0E8F979
:10766000636902930821A3691B4A03930DEB010090
:10767000FFF7F8FE08B1FFF7ABFE00260DF107009B
:107680008DF8076000F0B0F92369BBB1D4E90212AC
:10769000B2F1FF3F08BFB1F1FF3F11D05B1842F1DB
:1076A0000002C4E902329DF8070000F0C1F9002D84
:1076B000B8D00A48214601F069FEB3E71D46F2E75B
:1076C0003546F0E7B3F1FF3F08BFB2F1FF3FA8D066
:1076D000EFE700BF282B0020A17502002055030012
:1076E00013B5114B1149186801900823104858220E
:1076F00001F096FA044698B90E4A0F4801A900F025
:10770000D5F9044660B90C48012100F0A9FA01231B
:107710000A4A0948194600F00BFA094B01221A706F
:10772000204602B010BD00BF1C5503002C2B0020CA
:10773000842B00203178020074220020FFFF7F009C
:10774000282B002030B56AB103684FF0FF344FF0AA
:10775000FF355A614A1E5142C3E902455141196140
:10776000002030BD0720FCE7F7B5044600250DF1E9
:10777000070017460E468DF8075000F035F9D4E99A
:107780000223B3F1FF3F08BFB2F1FF3F07D1FFF77C
:107790000BFF301841F10001C4E9020101259DF8F9
:1077A000070000F045F955B12369A76103B12661CF
:1077B0002146002003B0BDE8F040FFF711BF284686
:1077C00003B0F0BD37B5054600240DF107008DF874
:1077D000074000F009F9D5E90223B3F1FF3F08BFE4
:1077E000B2F1FF3F1FBF4FF0FF324FF0FF33C5E94B
:1077F000022301249DF8070000F01AF934B129464C
:10780000012003B0BDE83040FFF7EABE204603B0D8
:1078100030BD0000024B002102201970FFF7E0BECE
:10782000282B0020014800F038BA00BF7422002045
:107830002DE9F743064600F01BFA40B1624AD2E94F
:10784000003113F1807341F10001C2E900310021E0
:10785000304600F01CFA38B15C4C236823B1206834
:10786000FFF7DAFE002323600121304600F00FFA13
:1078700020B1FFF799FE564BC3E900015548534C20
:1078800001A901F03CFA4FF0FF384FF0FF39A0B9E1
:10789000DFF844814D4D404601F08EFD002800F098
:1078A0008580D0E90223B3F1FF3F08BFB2F1FF3F6B
:1078B00032D1404601F07AFDEDE70378012B20D06C
:1078C000022B08D1444D284601F070FD002877D0E6
:1078D000C0E90289F7E75BB94168D1E90223B3F156
:1078E000FF3F08BFB2F1FF3F02D03B4801F04EFD21
:1078F00001A9384801F02EFA01A9364801F0FFF934
:10790000C5E741682368994202D100232360EFE76D
:10791000314801F054FDEBE7296891B12968D1E9BC
:10792000020182428B412FD22B68D3E90223B3F1AB
:10793000FF3F08BFB2F1FF3F03D02968404601F086
:1079400025FD404601F032FDD0E902490746FFF728
:107950002BFE201A69EB0109012879F1000318DBDD
:10796000B0F5350F13D3FFF75DFF1C4A02441C48E6
:107970004FF49603002100F0FBF890B92B6813B97F
:10798000304600F0CDF82F6003B0BDE8F08322460A
:10799000EDE71348002100F070F93846FFF73CFE90
:1079A00001E00D28F9D000232B6074E7074B1B681A
:1079B000002BE9D1304603B0BDE8F04300F0B4B885
:1079C000084B01221A7093E7202B0020A02B0020E7
:1079D000982B0020842B002020550300FFFFB400CB
:1079E00074220020282B002070B5EFF3108672B6A9
:1079F0000C4A946801239CB993600B4B0B4DD3F850
:107A0000801029401160C3F88050D3F88410516071
:107A10004FF0FF32C3F88420047006B962B670BD1F
:107A20000370FAE7A42B002000E100E0FC06FFBD94
:107A3000084B9A6810B55AB150B9EFF3108172B67D
:107A4000054A1C6814605C685460986001B962B6AD
:107A500010BD00BFA42B002000E100E003462AB1C6
:107A600010881A4619448A4203D170474FF6FF70B6
:107A7000F7E712F8013B40BA80B25840C0F3031355
:107A8000584080EA0033580100F4FF509BB2584040
:107A9000E9E7435882B03BB1002343504358019378
:107AA000019B012002B070471846FBE770B5184CE7
:107AB0004379184D44F8232005EBC3031B792BBBF6
:107AC00003680A88C3F8082590F904408B78027986
:107AD0005B01002CDBB214DB0F490E1986F8003372
:107AE0000123640902F01F0203FA02F241F8242084
:107AF000437905EBC302012145F8330011710020E1
:107B000070BD064902F00F028B54F1E70820F7E739
:107B1000B82B0020B02B002000E100E014ED00E0C5
:107B2000036801221A607047036801225A60704797
:107B300073B501F15005AD000068ADB24FF480346B
:107B40008C400026C0F80843C0F84843465101F570
:107B5000A8714559019522F07F42019D40F82120EE
:107B6000C0F844430BB1C0F8044302B070BD00003C
:107B70002DE9F74F0D4622F07F4402684FF480371D
:107B800005F150068F408046B60002EB8500C2F832
:107B90004873B6B2C2F80873D2F8041599464FF08C
:107BA000000BD0F84035C0F8401542F806B05B1A1B
:107BB0009259009223F07F43012B009A4FEA850AE5
:107BC0000CD1264B4FF4806043F001039847D8F85E
:107BD000003043F806B09B590193019BD8F8001080
:107BE000D1F80465C1F84473A31B23F07F43012B34
:107BF0001CD11A4B05F5A875013443F0010341F877
:107C000025404FF480609847D8F80030D3F8043509
:107C10009E4209D1D8F800300020C3F84473C3F85D
:107C2000047303B0BDE8F08F0D20FAE78A44C9F170
:107C3000FF13CAF84045D1F80405221A013A22F090
:107C40007F4203F57F439342EED3002AE2D1013411
:107C5000CAF84045D1F804359842DAE730550300B8
:107C600003680222C3F8442309B1C3F80423704710
:107C700000684FF48271FFF70CBF4FF4803303FAB2
:107C800001F10368C3F84813C3F808137047503173
:107C90008900006889B2FFF7FCBE0368D3F80405C9
:107CA0007047000090F90430002B09DB5A090121CC
:107CB00003F01F0301FA03F34032024941F8223076
:107CC000704700BF00E100E0024B034A1B681068E8
:107CD000184700BFB82B0020B02B002070B5064D10
:107CE0000646002455F8043B0BB130469847013452
:107CF000042CF7D170BD00BFC82B0020438803338C
:107D000000EB830399420BD382884FF6FF739A42AC
:107D100008D0038833B18068431C584258417047EB
:107D20000220704701207047033083B240F2FE32D8
:107D30009342F0B51ED8114C002526462078AFB2EC
:107D400080B92289B4F80AC062441A4492B2B2F5EA
:107D5000806F07D8142202FB05650F806A891344DF
:107D60006B81F0BD0135032D04F11404E6D148F216
:107D70000660F6E748F20860F3E700BFFC2B00203E
:107D80000B4A0C495388142000FB0311CB6833B90C
:107D90000420496810700122074801F0F1B8074932
:107DA0000523137002238B80012209680023F3E767
:107DB000E02B0020FC2B002060220020102D002052
:107DC00007B5002305490093054A096805480823BB
:107DD00001F0A8F803B05DF804FB00BF102D0020EF
:107DE000445503006022002007B50023014600939C
:107DF000034A0448082301F095F803B05DF804FB3A
:107E00003C5503006022002013B500230C4600936C
:107E10000146084A0848042301F084F838B9074BA2
:107E2000142101FB043101230B7402B010BD48F290
:107E30000D60FAE73855030060220020FC2B00207B
:107E400037B50A480A4B42689C881968538803254D
:107E5000033305709BB2002000909B0001EB84016E
:107E6000044801F05FF803B030BD00BFE02B0020F4
:107E7000102D00206022002010B50146044800F0BB
:107E800004FF1C22044600210DF069FA204610BDB3
:107E9000FC2C002068B10268084B9A4209D1406866
:107EA000074B984207D00133984214BF03200120AA
:107EB0007047032070470020704700BFDEC0ADDE72
:107EC000FE011EF12DE9F0410D460223154F2B80D6
:107ED000164600F5805100F108044FF001088C426D
:107EE0000ED2236801330BD02046FFF707FF48B1BD
:107EF0000EB186F80080022809D14FF480632B80F0
:107F0000BDE8F081A3683A68934200D93B602B88B2
:107F10006288033313442B806388033304EB8304A8
:107F2000DDE700BFF42B002038B5144B14220D46BA
:107F300002FB00302B68446804F58051A3B15C88D3
:107F4000033403EB84048C4215D22368013312D02E
:107F50002046FFF7D3FE012808D002280BD00028C6
:107F6000F1D12C60012038BD0834ECE7638803337D
:107F700004EB8304E7E70020F5E700BFFC2B0020BB
:107F8000426873B504460D4652B3224BD9688A4203
:107F900026D31B699A4223D812F0030320D11E492D
:107FA0000089098988421BD120689168884217D1CD
:107FB0001A4C1946606882428EB209D900F5805089
:107FC000824205D22E80B3FA83F0400902B070BD20
:107FD0000131032904F11404ECD148F20963F2E7FA
:107FE00000262E800196288801A9FFF79DFF30B951
:107FF0002B8801339BB2022B2B80F3D9E6E7019B40
:10800000226899689142EED16360034B1B892381FA
:10801000DCE700BF60220020E02B0020FC2B0020CA
:108020002DE9F8431C461D4B1B7806460F461546A6
:1080300073B382B37CB3DFF86C804FF01409A3886C
:10804000022B02D948F2096020E009FB03F318F87B
:1080500003302BB9A0882146FFF766FF20B92060C6
:10806000A3880133A380EAE723681EB19988328888
:108070009142EFD11FB119883A889142EAD19A68AA
:10808000C5E90023064B1B892B810020BDE8F8833E
:1080900048F20160FAE748F20460F7E7D82B0020C5
:1080A000E02B0020FC2B002008B5074B5888191D39
:1080B000FFF73AFF18B1BDE80840FFF7C1BEBDE8C1
:1080C0000840FFF75DBE00BFE02B00202DE9F04720
:1080D000A14FDFF8A88288B006463B6823B99F48C5
:1080E000414600F00CFE38603D6829784B1E052B98
:1080F00007D8DFE813F020007700770009010901B5
:108100005F0148F20E641422002103A80DF027F944
:1081100041F61D539C4208BF00243B6804941A7822
:10812000023A042A00F20A82DFE812F0EB01F701BA
:108130001902210228022EB1894B00225A604FF405
:108140000644E0E72B79032B1ED8DFE803F0160284
:108150002D38844A1378022B1CD0137D022B1BD0A0
:1081600092F82830022B19D114214B43D11800204A
:10817000D0544868FFF738FE03E001232B71FFF766
:108180001FFE002800F0BA80754B00225A6048F2AA
:108190000D64B8E70023E7E70123E5E7704B012210
:1081A0001A7000225A60FFE06F49704800230222D3
:1081B0002B718A800968012200F0E2FEE1E76C4B36
:1081C000684C5B88684A14214B43E11800262E71E5
:1081D0004D6810681560958848600D810221E6544D
:1081E0009180C7E7B5F814A0AA7DDFF87891AEB109
:1081F000022AEB8806D9142101FB0A91DA1C0889AE
:1082000002440A81142202FB0A99C3F57F43B9F89C
:108210000A20FD331344A9F80A3090E7142303FB26
:108220000A9318895C6804EB8004062A69D8DFE8A1
:1082300002F0274E36441D5A040041F61D54AA7D13
:10824000EB88022A06D9142101FB0A91DA1C08895D
:1082500002440A81142202FB0A99C3F57F43B9F84C
:108260000A20FD331344A9F80A304CE7414842493B
:1082700000234360AB690360FFF782FE00285AD0F9
:108280000223AB75002300930423EA1821463748E4
:1082900000F048FE002831D048F20D64CFE72B698A
:1082A000002B14BF03230123AB750023009305F1BA
:1082B0000C02042304F10801E9E70123AB75002255
:1082C000EB8800922A699B0004F10C01DFE7032987
:1082D0000CBF05230623AB7500230093042305F18F
:1082E0000802E118D3E70623AB75234B1988214B0D
:1082F0005868FFF789FD04460028A0D108B0BDE802
:10830000F08748F20E649AE7002E7FF418AF2B79BD
:10831000012B35D0022B47D0002B7FF4F2AE022385
:108320002B710DF10A01EB68039303A8CDE90466F4
:10833000FFF726FE10B948F20964E4E60498BDF898
:108340000A108388EB8003882B81FFF75DFD0446CC
:10835000002C7FF4D8AED1E7F82B0020FC2C0020B5
:10836000D82B0020FC2B0020102D002060220020A4
:10837000E02B0020BC2B00201C2D0020F02B002027
:10838000DFF8189203AA4B463146A81DFFF748FEB6
:10839000044660B9B9F804100498FFF735FD0446A7
:1083A00048F209639C42D3D141F61D54ABE6C9E9BA
:1083B0000066F5E7002E7FF4C2AE724B5A7BBAB16D
:1083C0005E731A78013A062A3FF69BAE01A151F876
:1083D00022F000BF8B840200C3840200DB84020011
:1083E000E184020003810200E7840200F9840200B4
:1083F0001A78072AE5D801A151F822F01D8402005D
:10840000C3830200C38302004F840200638402001E
:1084100087840200878402004B8402001A895A492B
:1084200001321A8100225A805A730A78B2FA82F213
:1084300052099A720A7DB2FA82F25209DA7291F8FE
:108440002820B2FA82F252091A73012207E04F493A
:1084500058688A884088033202448A8002221A704F
:10846000AFE75C88484A4949142505FB042208689F
:10847000546850608888108102200C608880002138
:1084800011740622EBE70722E9E73F4A404910460C
:108490000024142511F801EB1FFA86FCBEF1000F31
:1084A00012D005FB060E01F8014CDEF80CE0BEF11F
:1084B000000F09D192F810E0BEF1000F04D0A3F82C
:1084C00002C0FFF7F1FD42E70136032E02F114026C
:1084D000E0D100221A705A8064E6FFF7B1FC36E75B
:1084E000FFF74EFC33E75A88274B142101FB023378
:1084F0005868FFF779FC2AE700225A60FFF760FC12
:1085000025E701228DF80C201A89ADF818209A88E9
:10851000DB68ADF81A20059310E002228DF80C20DC
:108520001A89ADF818209A88ADF81A20DA689B7D70
:1085300005929A1F534253418DF81C3003A8FFF750
:10854000CDFB0026414613483E6000F003FC124874
:10855000012100F0B9FC00287FF4BFADCEE6032274
:108560008DF80C20DA88ADF818201A89D0E704229B
:108570008DF80C20DB88ADF81830DFE705238DF887
:108580000C30DBE7E02B0020FC2B0020102D00201E
:10859000EA2B0020FC2C00200C2D0020202D002098
:1085A0004068FFF793BD000008B50548012100F0C1
:1085B00073FC18B9BDE80840FFF788BD08BD00BFCF
:1085C0000C2D00202DE9F34198460023ADF8023030
:1085D000414B1B7806460D46002B71D0002972D006
:1085E00009884FF6FF73994270D06B88002B6DD0CD
:1085F0006B689B076DD142B92F8969463846FFF7F2
:1086000093FB30B102B0BDE8F08113885788ADF814
:10861000003001A8FFF730FC044660B9BDF8002027
:108620002E4B142101FB023358890338C01B58819B
:1086300048F20760E6E780F8008000238375BDF804
:10864000003083826B6803610121254800F030FC13
:108650002B882381B8F1030F6B88A38001BF04230B
:10866000A3753368A361E06000220621E780201D26
:10867000FFF7F4F90DF10202ADF80200042104F154
:108680000C00FFF7EBF9A968ADF8020089006868F3
:108690000DF10202FFF7E2F901A9ADF802006081D5
:1086A000104800F01CFB3EB10023E2687360B37217
:1086B0000D4B32601B893381FFF776FF0020A1E765
:1086C00048F201609EE748F204609BE748F20360CD
:1086D00098E748F2026095E7D82B0020FC2B002099
:1086E000F42B0020FC2C0020E02B002008B50346D2
:1086F00007480268042A08D00168064A42F8213077
:10870000012100F0D5FB002008BD48F20B60FBE71B
:10871000182D0020C82B00202DE9F04FDFF8208213
:1087200089B01422002103A80CF019FE98F800303B
:1087300003F0FF0200923BB103A8FFF7CFFA002736
:10874000384609B0BDE8F08F08F1040000F0D6FB10
:108750000028F4D1009BDFF8ECA1D3F8F83F5C1CB3
:1087600008BF4FF010234FF0805208BF5B691169BA
:108770005269581C08BF02FB01F3CAF8103069495E
:10878000A3F5804300225046CAF80C3000F0BCFB31
:1087900007460028D4D11C2363496448DFF8A8B1F8
:1087A000C42200F03DFA0423B9463D4601933C46FD
:1087B000DAF80C604E443046FFF76CFB012867D0B6
:1087C000032817D000283DD159494FF0140C0CFB59
:1087D00004FC01EB0C0201F80C0056600CF11002D5
:1087E0000CF1080C0A4430466144FFF76BFB45F07E
:1087F00002054AE03268531C02D04E4B9A4239D1EE
:10880000321D06F580511068013033D10432914297
:10881000F9D1DBF800203AB902220123CBF800603D
:10882000ABF8042000930BE014226243404B02207B
:1088300099189854404A4E60548001340881A4B27B
:1088400045F0010509F58059B9F5804FB0D1019B7C
:10885000012B98BF0025EDB2022D03D0062D36D096
:10886000002D3ED1002388F8003048F20A67C8F88E
:10887000043065E7019B2E495A1E93B214226243CD
:10888000881801934660032088540134A4B2D9E7C4
:10889000009B6BB1264B1422624399180220985416
:1088A000DBF800204A60244A088154800134A4B2D5
:1088B00000222249CBF800603046FFF703FBBBF8EB
:1088C0000420022A0CBF042208221543BAE7012320
:1088D00088F8003003A80023C8F80430FFF7FEF939
:1088E0002EE702A8FFF7C8FAC8B10123013D0370C3
:1088F0000A2D09D8DFE805F006080608070807086A
:108900000F110F000023037102A9084800F0E7F9D6
:10891000FFF74AFE14E70323F5E70223F3E748F2E3
:1089200007670DE758550300382C0020FC2C002069
:10893000FC2B0020DEC0ADDEE02B0020142D00203B
:10894000D82B002060220020102D00202DE9F341BB
:108950000D46044668B361B301A9FFF711FB58B394
:108960006668002206213046B6F806807788FFF751
:1089700075F8791CADF806000DF10602890006F1C4
:108980000800FFF76BF8804519D1BDF804300D4899
:10899000142202FB030001210C3000F089FA636805
:1089A0002E600C336B600123A372002002B0BDE87F
:1089B000F08148F20460F9E748F20960F6E748F20E
:1089C0000C60F3E7FC2B002013B50446A8B10DF1B1
:1089D0000601FFF7D5FA98B1BDF806200B4B14211C
:1089E00001FB0233DA6872B1A27A62B1DA68002060
:1089F000013ADA60A07202B010BD48F20460FAE7F2
:108A000048F20960F7E748F20560F4E7FC2B002024
:108A100002230022FFF7D6BD18B103230022FFF77F
:108A2000D1BD48F204607047114B1B7813B5044662
:108A3000ABB14FF6FF73984214D001A8FFF71CFAB0
:108A400098B10523037001230371C48001A909486B
:108A500000F045F9FFF7A8FD002002B010BD48F274
:108A60000160FAE748F20360F7E748F20760F4E7CD
:108A7000D82B0020FC2C00200F4B1B7807B5A3B18E
:108A800001A8FFF7F9F998B10623037001A90B4873
:108A900000F025F90A4B1A780AB101225A73FFF740
:108AA00083FD002003B05DF804FB48F20160F9E7A4
:108AB00048F20760F6E700BFD82B0020FC2C00200E
:108AC000E02B002007B5ADF80600ADF804100DF15D
:108AD000060001A9FFF7A4FA03B05DF804FB07B58F
:108AE0001346ADF806000A4600200DF10601FFF717
:108AF00097FA03B05DF804FB07B51346ADF806001E
:108B00000A460DF106000021FFF78AFA03B05DF86E
:108B100004FB20B119B103680B600020704748F2D4
:108B2000046070472DE9F84F3B4B1B780446002B3F
:108B30006CD000286DD0DFF8E490122200210CF0F8
:108B40000EFC042323804FF0000A4F4614264FF0FA
:108B50000108D9F80410B9F80AB0B9F80850084665
:108B6000FFF798F9032808BF2388628804BF03F140
:108B7000FF33238006FB0A735D44DB681344638084
:108B800023899B446389A4F808B0ADB22B44638168
:108B9000C5F58065A389ADB2AB4238BFA58101F1AF
:108BA000080501F58051A94226D92B68013323D04D
:108BB0002846FFF7A3F8012807D0022812D0002882
:108BC000F1D1A3880133A38007E0E3880133E38078
:108BD000E3896A8803331344E3816B88033305EB2D
:108BE0008305E0E7E38884F810804D1BE1890133B9
:108BF00001EBA501E380E1810AF1010ABAF1030F5B
:108C000009F11409A5D10020BDE8F88F48F20160F0
:108C1000FAE748F20460F7E7D82B0020FC2B00208D
:108C200010B561B1B2FBF3F403FB1424A4B244B950
:108C3000C0E9001484608281C381204610BD0E20EB
:108C4000FCE70920FAE782B050E8022FC188B2EBB6
:108C5000324F4FF0000317BF92B241EA014142EA9E
:108C6000014104E04268B2EB324F08BF012340E803
:108C70000212002AE8D18DF807309DF80730002B4A
:108C80000CBF1120002002B0704737B550E8013FFB
:108C90009DB2C48925448489A54228BF2D1B04891F
:108CA000A54202BFBFF32F8F002207E0C5EA0305EC
:108CB00040E80154002CE9D14FF001028DF8032067
:108CC0000193019A0A609DF8031001F0FF0321B19E
:108CD000006810FA82F003B030BD1846FBE70A883E
:108CE0004B889A4209D150E8012FC2EA024240E87B
:108CF0000123002BF7D1012070470020704737B5C2
:108D000050E8023F1FFAA3F5C488A54202BFBFF393
:108D10002F8F00220DE0C48925448489A54228BFF5
:108D20002D1BC3EA054540E80254002CE8D14FF062
:108D300001028DF803200193019A0A609DF8031047
:108D400001F0FF0321B1006800EB124003B030BD19
:108D50001846FBE70A884B889A4209D150E8022F4F
:108D6000C2EA224240E80223002BF7D101207047DB
:108D70000020704701F01F024B090121914000EBD8
:108D8000830000F065B84B0910B501F01F04012104
:108D9000A14000EB830000F04FF8E04000F001003C
:108DA00010BD01F01F0301229A404B0900EB830024
:108DB000D14300F065B84B0901F01F0150F82300C2
:108DC000C84000F0010070472DE9F0474F1E7F09B1
:108DD00080460E460137002558F8254008EB8509E6
:108DE000E44394FAA4F4B4FA84F44FEA451A202C2C
:108DF00006D10135AF42EFD834462046BDE8F087B2
:108E00005444A642F5D921464046FFF7BCFF00284E
:108E1000F3D0D9F80040E44394FAA4F4B4FA84F40B
:108E2000E5E710B5034653E8000F0A4643E800247F
:108E300094F0000FF7D110BD10B5034653E8000FB2
:108E400040EA010243E8002494F0000FF6D110BD7F
:108E500010B5034653E8002F42EA010043E800043E
:108E600094F0000FF6D110BD10B5034653E8000F83
:108E700000EA010243E8002494F0000FF6D110BD8F
:108E800010B5034653E8002F02EA010043E800044E
:108E900094F0000FF6D110BD10B5034653E8000F53
:108EA00000EB010243E8002494F0000FF6D110BD5E
:108EB00010B5034653E8002F02EB010043E800041D
:108EC00094F0000FF6D110BD10B5034653E8002F03
:108ED000A2EB010043E8000494F0000FF6D110BDAE
:108EE00010B5034653E8002F8A422CBF501A104693
:108EF00043E8000494F0000FF4D110BD0121FFF706
:108F00009BBF0021FFF7B0BF0B4610B4114628B13C
:108F100023B103605DF8044B1B6818470E205DF811
:108F2000044B70472DE9F04308B302B3D0F800E0DA
:108F3000BEF1000F1ED0FBB14568D5F80490B3FB1D
:108F4000F9F509FB1535BDB942EA010C1CF0030F18
:108F500014D1C568A94211D34D1EEC180569AC4265
:108F60000CD8DEF80C40A446BDE8F04360470E2064
:108F7000BDE8F0830820FBE70920F9E71020F7E7B8
:108F8000F0B5D8B1D0F800C0BCF1000F18D0CAB10C
:108F90004568D5F800E00EF1FF350D4214D1C568E3
:108FA000A94211D34D1E0EFB02540569AC420BD8E9
:108FB000DCF81040A446BDE8F04060470E20F0BD4C
:108FC0000820FCE70920FAE71020F8E729DF7047BE
:108FD00028DF704770B503689E6886B004460D466A
:108FE0006EB11422002168460CF0B9F9A36805930C
:108FF000237901952BB1012B0DD06846B04706B0FF
:1090000070BD01238DF8003023690293E368039358
:1090100063690493F1E702238DF80030E3681B03D2
:109020000293F5E70846704700207047024B187A14
:10903000003818BF01207047C42D0020034B187A58
:109040000122B0FA80F05A7440097047C42D002004
:1090500008B510461A460CF059F9002008BD00006A
:1090600008B51422002104480CF079F90348FFF7F1
:10907000EAFD002008BD00BFC42D0020B42D002053
:1090800010B5094C094B43602046FFF737FF40B944
:109090000AF0CCFB064920741C2306488C22FFF7FB
:1090A000BFFD002010BD00BFC42D00204C550300A3
:1090B000282D0020B42D002038B5234D234C2B7AC9
:1090C0003BB923492348FFF71AFE206008B96860BE
:1090D00038BD022324682B72237973B1012B24D06D
:1090E00020460321FFF776FF00232B726B6018499F
:1090F0001848BDE83840FFF72DBED4E90523D21A41
:10910000B2F5805FD4E9031028BF4FF48052920873
:10911000012A38BF012219441844FFF757FF50B104
:109120001128DDD101232B72D2E7D4E903031844BF
:10913000FFF74EFFF3E72B7C002BC9D1BDE8384089
:10914000022000F009B800BFC42D0020DC2D002053
:10915000D82D0020B42D002038B5234C237A002BC5
:1091600041D0022B09D1032830D0204B00221B68AC
:10917000E2601A793AB1012A22D0637C7BBBBDE858
:109180003840FFF799BFD3E905128D1AB5F5805F16
:1091900094BF521902F580529A619142EDD1022892
:1091A0004FF0000308BF19462372104B18BF0D2162
:1091B0001868FFF70FFF0E490E48FFF7CBFDDCE7FD
:1091C0001A6901321A615B699A42E7E7E368013381
:1091D000082B01D8E360D0E70023E360DFE7BDE8B8
:1091E00038400AF013BB38BDC42D0020DC2D002010
:1091F000D82D0020B42D0020831E012B01D8FFF7AD
:10920000ABBF704700F0FD03012B08D1044B0022D7
:109210005A74421E504250411874FFF74DBF7047B8
:10922000C42D002010B5064C201DFFF767FE28B99D
:10923000637C1BB9BDE81040FFF73EBF10BD00BF07
:10924000C42D00202DE9F34180460D46104801A9A8
:1092500016461F46FFF719FD0446B0B1182200213B
:1092600004300CF07CF82D0B0123237101A9084870
:10927000C4F80080A760E5606661FFF730FDFFF786
:10928000D1FF002002B0BDE8F0810420FAE700BF62
:10929000B42D00202DE9F34180460F460F4801A967
:1092A00016461D46FFF7F1FC0446A8B1182200211E
:1092B00004300CF054F8089BA36001A9C4E90367CB
:1092C0000648C4F800806561FFF709FDFFF7AAFFB3
:1092D000002002B0BDE8F0810420FAE7B42D0020A0
:1092E00041DF7047064B10B500241C70054B1C6015
:1092F000BFF35F8F0449054800F032F8204610BDE7
:10930000E82D0020EC2D002078550300E02D0020F2
:1093100007B500230DF107008DF80730FEF764FB59
:10932000F1EE103A23F09F03E1EE103ABFF35F8FA6
:109330000A4B4022C3F884219DF80700FEF778FB12
:109340000AF074FA20B103B05DF804EBFFF7C8BF70
:1093500020BF40BF20BF03B05DF804FB00E100E088
:109360000B684A684360934208BF0023016008BF4E
:1093700043607047436843B10268916852680B4488
:109380009342436004BF00234360704770B5446854
:1093900006460D46206818B1B3682946984718B9A3
:1093A00023682B60256070BD2468F3E74368186864
:1093B00008B102681A6070474368186870474368CC
:1093C000186800B97047884203D102681A6001200A
:1093D000704703460068F4E743681B6818470000BD
:1093E000024B5B6803B11847704700BFF42D0020A3
:1093F000020600F00F034CBF02480348DB0018448C
:10940000704700BF002E0020482E002008B5FFF74F
:10941000EFFF016009B14B681968416008BD0000A9
:10942000024B0146D3E90002104700BF482E00203E
:1094300038B5831EDBB2062B98BF1A4A1A4D98BF67
:10944000D25C2B78A3F10203DBB288BF0022062B8B
:109450009ABF1449CB5C00239342044603D0B2B1B7
:10946000124802F0FBFA022C14D0A4F10800424288
:1094700042412B78022B0FD0A3F108014B424B4104
:10948000934202D052B103F09FFB2C7038BD02F022
:109490001FFBE8E70122ECE70123F1E703F08AFB79
:1094A000F3E700BF84550300C02F00207C2200207A
:1094B0000378052B73B504460BD12F4AD2F88434B8
:1094C000D2F88024D2B222B92C4ADBB2052B08BFD5
:1094D000144623782BBB2A4B1D68DDB98DF8045048
:1094E000284D01A8FEF780FA2B6813B9264B628835
:1094F0001A8001212348FFF7DBFC9DF80400FEF7EA
:1095000097FA224B1B6813B10121204698472B681C
:1095100002B070BD2B6860889B6898472B685D68B7
:10952000DBE71B4801A9FFF7B0FB05460028EFD099
:109530002368036000260DF103008DF80360FEF739
:1095400053FA114B0F481B88026801339B1AEB80BA
:109550003146FFF766FCA8809DF80300FEF768FA25
:1095600001A90B48FFF7BBFB084B1B680146002B0A
:10957000CED020469847CBE7007002409C550300B0
:10958000B42F0020BC2F0020902E0020F42D0020AE
:109590009C2F0020FFF78CBF012805D0022805D0A2
:1095A00030B90448FFF784BF0348FBE70348F9E7F5
:1095B000704700BF94550300905503009855030071
:1095C0000148FFF775BF00BFA05503002DE9F04F1C
:1095D00087B000260546884691461F4602966B686E
:1095E00000225C682946012302A8A047044638B936
:1095F0008DF8060004908246564503D8052028E0E1
:109600000136ECE76B680DF10602D3F804B0294689
:10961000012304A8D8476B680DF10702D3F804B002
:109620002946012304A8D8479DF8073043459DF8F3
:10963000063013D14C450FD1109A13603B7087F858
:1096400001806A68023B54682946BA1C04A8A047F6
:10965000002007B0BDE8F08F0134E4B26A68023B35
:10966000D2F804B02946002204A8D8479DF8063055
:109670009A44C1E72DE9F743082305462D492E48B2
:109680004FF48472FFF7CCFA002851D12B4803F035
:10969000B1FA0446002847D1294B1870294B1860AD
:1096A000294B01461860482228480BF058FE2848EC
:1096B000482221460BF053FE264B8DB9C3E90055D5
:1096C0001D72002003F004FF18B1852801D0FDF7BA
:1096D0007FFE214F002697F8089007F1090810E057
:1096E00095E8070083E80700EBE7A37823443946B1
:1096F000985CFFF78BFE01356378EAB29342F4D8A9
:109700000136F4B2A14504D904EB440444440025D5
:10971000F2E70B2310488DF8043001A9FFF75CFE37
:10972000044608B103F024F9204603B0BDE8F083F5
:109730000324F9E7922E00209C2F0020959502002B
:10974000C02F0020AC2F0020B02F0020002E0020C2
:10975000482E0020F42D0020A855030010B503F07A
:10976000D7F910B90823184610BD03F0D9F90446FB
:109770000028F7D1044803F0DFFE03460028F2D0AA
:10978000FDF726FE2346EEE78C55030003F0FAB8FA
:1097900003F04ABD4FF08043D3F83824920702D536
:1097A0000348FFF785BED3F83824D107F4D47047B7
:1097B000A555030007B5822301A88DF80430FFF7F3
:1097C00077FE03B05DF804FB07B5832301A88DF88D
:1097D0000430FFF76DFE03B05DF804FB13B5012004
:1097E00000F02EFE044628B1842301A88DF8043031
:1097F000FFF75EFE204602B010BD00002DE9F743E2
:1098000000F1090190F80890054600270E46FBB2CA
:109810004B452AD291F801800024E3B298450AD939
:109820008B780A190134D05CFFF7E2FD0368002B46
:10983000F3D0112028E001370331E8E7A278234470
:109840002946985CFFF7E2FD01376278FBB29A4245
:10985000F4D808F101082B7A5FFA88F4A34216D9EC
:1098600004EB440434440027EFE74FF00008F2E72C
:1098700013681A68002AFBD11D6001A90B23284632
:109880008DF80430FFF7A8FD03B0BDE8F083014B6D
:10989000EFE700BFAC2F0020074B02461B6823B93F
:1098A000064B186820B91A6070471B680433F5E747
:1098B00003680433F5E700BFB42F0020B02F002069
:1098C000074B1A680AB905207047824205D1026821
:1098D0000020516819605060704713680433F0E746
:1098E000B02F0020024A1378013313700020704714
:1098F000B82F0020024A1378013B137000207047F4
:10990000B82F0020024B1878003818BF012070478C
:10991000B82F0020030710B5044604D403F092FAD0
:10992000204603F04FFD2046BDE8104003F0F4BC94
:1099300003F0C0BC014B1868704700BFAC2F00207B
:10994000F0B50A4B0246186878B1057A0023861DE7
:10995000DCB2A54201D80368F5E7013303EB430706
:10996000F75D9742F4D101B10C70F0BDAC2F00202F
:109970001146FFF731BD08B500F00F03082B07D8DB
:10998000FFF736FD006818B1BDE80840FFF724BDB9
:10999000102008BD38B5054B05461C6804B938BD14
:1099A00029462046FFF718FD2368F6E7AC2F002074
:1099B00038B5074B05461C680CB9062038BD29464A
:1099C0002046FFF709FD0628F8D12368F3E700BF1A
:1099D000AC2F002013B50446019103F051F950B1AA
:1099E000064B1B78022B06D10199204602B0BDE838
:1099F000104003F055B9082002B010BDC02F002060
:109A000013B50446019103F03BF950B1064B1B78A6
:109A1000022B06D10199204602B0BDE8104003F0A8
:109A2000B9B9082002B010BDC02F0020F8B54368B6
:109A30009B6805460C46164613B92EB1072002E076
:109A400098470628F9D0F8BD2B7AA34213D90935D7
:109A500004EB44042C446778F3B29F4201D8002001
:109A6000F1E762789A4208D9A219A378D05CFFF78F
:109A700051FF0136F0E77378FFDE00231B78FBE728
:109A80004368DB6870B505460C4603B198472B7AEE
:109A9000A34213D9093504EB44042C44002566780D
:109AA000EBB29E4200D870BD62789A4209D9621921
:109AB000A378D05C03F0FEFB0135F1E700235B786F
:109AC000FFDE00231B78FBE743681B6903B11847DF
:109AD0001846704770B5084B1C6804B970BD267AEB
:109AE0000025E9B28E4201D82368F5E7002220461E
:109AF000FFF79CFF0135F4E7AC2F002070B5084B51
:109B00001C6804B970BD267A0025E9B28E4201D8DE
:109B10002368F5E72046FFF7B3FF0135F5E700BFFF
:109B2000AC2F002038B503780F2B044610D9A3F1D1
:109B3000800283F08003052B00D938BD052AFCD8AC
:109B4000DFE812F067002C00490073007E00E0009F
:109B50000F2BF2D801A252F823F000BF639C020041
:109B6000939C0200F39C0200B79C0200D59C02006B
:109B7000059D0200179D02003B9B0200419D0200D3
:109B8000459D0200499D02003B9B02003B9B020059
:109B90003B9B02003B9B02000F9D02006B48FFF7BE
:109BA0003FFC6A48FFF7F6FE0D20FFF719FCFFF7B0
:109BB000A5FF00F0CCF9664B1B6853B9654B187ACA
:109BC00000F0010002F080FF0120BDE83840FFF7FF
:109BD0002FBC0120F4E7FFF791FF03F003FB002007
:109BE000FFF726FC5C48FFF7D5FE5B48FFF718FC43
:109BF0000E20FFF7F5FB594B1B78023BDBB2062B1F
:109C00009BD8574AD35C002B97D0BDE8384001F071
:109C10005FBF524B1B78062B05D003F0FD03052BCD
:109C20008BD10220D1E70820CFE74C4B1B78032BC8
:109C300083D103F013FB00283FF47FAF0420C4E777
:109C4000464B1B78032B05D103F008FB10B1042011
:109C5000FFF7EEFB02F06EFF00283FF46EAF062028
:109C6000B3E73E4B1B78032B01D0082B02D13D48B4
:109C7000FFF758FF0020FFF7B3FB354B1D68002DA1
:109C80003FF45BAF28462146FFF7A6FB2B685D68D3
:109C9000F5E7FFF733FF00F051F90220FFF7C8FBAB
:109CA0000120FFF79DFB2046FFF7BAFB2046BDE8E9
:109CB0003840FFF76FBE294B1B78082B06D10220D6
:109CC000FFF7B6FB02F08AFF0320EAE70520FFF763
:109CD000AFFBF9E70320FFF783FB2348FFF7A0FB67
:109CE0002148FFF757FE1D4B1B78062B99D1072003
:109CF0006BE70320FFF79CFB0220FFF771FB204678
:109D0000FFF748FE2046BDE83840FFF789BB0F202B
:109D1000FFF766FBCAE78078FFF76AFB21464368D6
:109D20000068984700283FF408AFA07802073FF486
:109D300004AF03073FF501AFBDE8384003F074B846
:109D40000820E5E70920E3E70A20E1E7A45503003E
:109D5000B02F0020F42D0020A3550300C02F0020B9
:109D600084550300A2550300A155030073B5244E8A
:109D700000230193336823B922492348FEF7BFFF2C
:109D800030603468ECB1A58885B1E388B3F5006F25
:109D900024BF0023E380E388ADF806305A1C013D60
:109DA000E280A58001A8FFF7BDFE07E02046FFF78F
:109DB000B9FE14491448FEF7CDFF3560012002B00A
:109DC00070BD124B18680028F9D00DF103008DF812
:109DD0000340FDF709FE0E4B0C481A88B2F5006FE0
:109DE00028BF1C801A88ADF80620511C198001215B
:109DF000FFF776F89DF80300FDF71AFED2E700BFE3
:109E0000C42F0020F02D00209C2F0020BC2F00200C
:109E1000902E0020002070472DE9F04F2DED028B91
:109E20004B6885B080460C4601926BB90B681B6885
:109E30001B684BB98D683DB9C0E90055284605B08F
:109E4000BDEC028BBDE8F08F02F0EAFF019BE768F2
:109E50009F4228BF1F4604F110034FF0000A08EE8E
:109E6000103A8146564601254FB3A3686168BB424C
:109E70009B4628BFBB4629B35A4609EB06000BF0A8
:109E800045FA00236360A268E368A2EB0B02A3EB30
:109E90000B03A260E360A7EB0B075E440ABBBAF1B9
:109EA000000F03D02268126812682260DBB12368B9
:109EB000DBB963601EB1019BB34288BF0025C8E9CE
:109EC0000096BBE7002BDED021684B6818EE100A25
:109ED000D3F804A009EB06025B46D0474FF0010A15
:109EE000D1E7002BC0D10025BEE7002302932168F3
:109EF0004B680022D3F804B002A80123D84708B960
:109F00002061B1E7A3680133A360F0E7084B1A783A
:109F100082420CD0052818BF064A187018BF137863
:109F200005481CBF23F002031370FFF7FBBD704709
:109F3000D42F0020F02F0020B855030008B50020D2
:109F4000FFF7E8FCBDE808408020FFF7E3BC08B558
:109F50000020FFF7EDFCBDE808408020FFF7E8BCDB
:109F600038B505460C4602F0E9FFA84205BFD4E922
:109F70000001034B1020C3E9000108BF002038BDD9
:109F8000F42F00207FB5C38893421E4628BF164693
:109F900093420D46144625D9802002F06BFEB4FB97
:109FA000F0F202FB1044B4FA84F4640900230DF1CA
:109FB000030003948DF80330CDE90156FDF714FD3D
:109FC00001A98020FFF706FD044620B9064980203C
:109FD000FFF7C6FF04469DF80300FDF729FD204664
:109FE00004B070BD0024E1E7EC5503002DE9F04F0B
:109FF0000B780E2B89B00D4613D8A3B1013B0D2B66
:10A0000011D8DFE813F012001A00160010002A0021
:10A01000F40110001000100010001A00DE01E2012F
:10A02000F201852B13D00624DBE10320FFF76EFF3E
:10A03000F9E7A848FEF765FF08B90024D1E1A64B6F
:10A040000122DA65BFF36F8FBFF34F8FF5E7A34BA4
:10A050001B78032BE7D10420E8E70523A04D8DF8FA
:10A0600014300DF1150002F0FDFE00232B609DF869
:10A07000153003F01F07032F00F25C81DFE817F0B3
:10A080000400F4005101370013F0600FC3F34118CE
:10A090002DD1DB099DF8162000F09F80062A0FD0F5
:10A0A000082A00F08C8012BB8E490B708E4B4A70D0
:10A0B0001B789A0744BF03230B70022289490EE0E4
:10A0C0009DF81830022B16D0032B68D0012B0ED12F
:10A0D000BDF81B30002B00F07181844912220DF174
:10A0E0001500FFF74FFF0446062C40F02B8105A812
:10A0F000FFF75EFC13E1BDF81B60002E00F05E81EF
:10A10000092E28BF0926FFF715FC4FF00909044660
:10A1100074BB744C7649324620460BF0F7F8277131
:10A12000A4F80290FFF7EEFB18B1E37943F02003A7
:10A13000E371FFF7FFFB6F4BC3E900049E60BDF8BE
:10A140001B20DA6003A800238DF80C30FDF74CFCCF
:10A1500069498020FFF754FC044620B967498020F4
:10A16000FFF7FEFE04469DF80C00FDF761FCBBE71F
:10A17000CDF80C804FF0000A63680022D3F804B0D9
:10A180002146012303A8D84730B9237A1F44236806
:10A19000D1441C68FFB2BBE70AF1010AECE7BDF845
:10A1A0001B30002B00F00A81BDF819109DF8170034
:10A1B00001F07AFA0146002899D002788FE7474AE1
:10A1C0001278052A03D1474A1370012276E7042A40
:10A1D0008DD1444B83F80080F7E7032A10D0092A79
:10A1E0002CD0012A83D1BDF81730012B7FF47FAF2B
:10A1F000FFF788FB60B13C4A137823F002030FE0BD
:10A20000BDF81730012B7FF472AFFFF77BFB18B955
:10A210000F2402F089FEE4E0334A137843F002038E
:10A2200013702B68002B00F0C98002F087FE0446F3
:10A2300000287FF402AF02F037FED2E0274B1B78F4
:10A24000043B012B01D90824E3E79DF817302BB913
:10A25000FFF754FC0420FFF759FEE2E7012B57D12A
:10A26000FFF738FC0520F6E79DF8190003A9FFF772
:10A2700067FB064608B91024CBE79DF80C1005AA29
:10A28000FFF776FB062804465CD19DF8152012F0F6
:10A29000600FBED1114B9DF80C1018789DF8163048
:10A2A000D2092DD07BB10A2BB3D10528CBD13046B2
:10A2B0000192FFF709FC0B49019A08700DF1150096
:10A2C000FFF760FE2BE00528BDD106490B80022276
:10A2D000F4E700BFFC2F002000700240D42F0020C4
:10A2E000F42F002000300020F02F0020D85503006C
:10A2F000B9550300D82F0020F4550300EC55030096
:10A300000B2B86D105289ED1BDF81730FF2B01D924
:10A3100007247EE79DF817203046FFF787FB0446A9
:10A3200010E09DF81900030706D19DF8153013F0D1
:10A33000600F0BD006246CE705A9FFF71CFB06286D
:10A340000446F2D0002C3FF46CAF62E79DF8162073
:10A35000344B9DF819401B78012A1DD0032A0CD0DC
:10A36000002AE7D1052B02D027077FF46CAF2046E7
:10A3700002F066FD2C490880A9E72607DAD4BDF86B
:10A380001720002AD6D12007D4D0052B7FF45BAF4D
:10A39000204602F049FD44E72107CBD4BDF8172041
:10A3A000002AC7D12207C5D0052B7FF44CAF204629
:10A3B00002F048FD204603F005F832E702F0AAFD5E
:10A3C0003BE60020FFF7A2FD37E64FF08043D3F8CD
:10A3D000384414F0010401D00220F3E70120FFF714
:10A3E00095FD204609B0BDE8F08F0120EAE7C87866
:10A3F00003283FF418AE0D4E33688BB1002271680C
:10A4000032609847044600287FF403AF336823B1D5
:10A41000AB78002B7FF411AE0DE702F07BFDE0E797
:10A420000E24F6E6D42F002000300020F42F002068
:10A4300008B1402303600148704700BF003000208E
:10A44000034B1B7843FA00F000F00100704700BF97
:10A45000F02F002010B50B46044628B9CA6A1846EA
:10A4600002219047204610BD0320FCE710B50B46A3
:10A47000044628B9CA6A184604219047204610BDF0
:10A480000320FCE7007D7047036953F8213018680A
:10A490007047036953F82130986810447047036887
:10A4A0000020D96170470368DB6903B118470620B3
:10A4B00070472DE9FF41037A07680446002B3BD023
:10A4C000837A00F10902002B38D0C37A0C376FF081
:10A4D0000801384612F80380FEF7D2FC606B00F0EA
:10A4E000C6FE054630BB04F1100001F0B9F806467F
:10A4F00001462A46606B00F0C1FE33680193736821
:10A500008DF803500DF10300CDE90235FDF76CFA2B
:10A5100001A94046FFF75EFA044618B908213846FB
:10A52000FEF796FC9DF80300FDF782FA204604B082
:10A53000BDE8F0810024F9E75B78FFDE1B78FCE7DB
:10A5400038B505680446406B00F091FE20B92046FE
:10A55000BDE83840FFF7ADBF6FF0080105F10C0012
:10A56000FEF78EFC002038BD30B50B79022B87B08A
:10A57000054625D1036AC9781A6811701A685B68A4
:10A5800000240132013B0DF1030003920493059472
:10A590008DF80340FDF728FA204603A9FFF71AFAC1
:10A5A000044630B9144B01A9CDE90135FFF7D8FCB9
:10A5B00004469DF80300FDF73BFA204607B030BD86
:10A5C000032B17D1103001F04DF8036803930024DA
:10A5D000436804930DF1030005948DF80340FDF7E3
:10A5E00003FA204603A9FFF7F5F904460028E0D155
:10A5F000024BD8E70624E0E755A402006DA4020050
:10A600000A79012A0B4605D1C169D1E90012581C0B
:10A61000FFF7B8BC022A01D1016AF6E7032A01D18B
:10A62000416AF2E7062070470B46014651F8102BAD
:10A630000C3200F06DBE00002DE9F041046891F885
:10A64000088005460E461F46002C3DD0A4F21A2471
:10A65000332C00F2D081332C00F2CD81DFE814F0EE
:10A6600046005200CB01CB01CB016E00CB017A003A
:10A6700088009400A000AC00B800CB01CB01C4005E
:10A68000D000DC00EA00F6000201CB01CB01CB01D7
:10A69000CB01CB01CB01CB01CB012F01CB01CB01F6
:10A6A00041014F01CB01CB01CB01CB01CB01CB0150
:10A6B000CB01CB0160017801CB01CB01CB018E0135
:10A6C0009A01A601B201C1019B4B1C709A4B1B78E9
:10A6D000434502D340F2512305E00923BC422B71CC
:10A6E00005D340F21A232B600120A1E000240AB117
:10A6F0002B79135501340423BC422B7103D340F250
:10A700001B23F0E700240AB12B7913558A4B317AC9
:10A710001B788A48994204F1010440F2708106F1E5
:10A72000090103EB430301EB030CBC42CB5CC0F813
:10A7300000C02B7103D340F21F23D4E700240AB1D9
:10A740002B79135501340023BC422B7103D340F203
:10A750002123C8E700240AB12B791355774B1B68D6
:10A7600001345B782B71BC4203D340F22223BAE759
:10A7700000240AB12B79135501340323BC422B71F9
:10A7800003D340F22323AEE700240AB12B791355FB
:10A790000134337E2B71BC4203D34FF40973A2E71B
:10A7A00000240AB12B7913550134737E2B71BC42FE
:10A7B00003D340F2252396E700240AB12B791355E1
:10A7C00001340023BC422B7103D340F226238AE7D5
:10A7D00000240AB12B79135501340923BC422B7193
:10A7E00003D340F229237EE700240AB12B791355C5
:10A7F00001342123BC422B7103D340F22A2372E798
:10A8000000240AB12B79135501341123BC422B715A
:10A8100003D340F22B2366E700240AB12B791355AA
:10A8200001340120BC42287105D34FF40B732B6017
:10A83000BDE8F08100240AB12B79135501340023BF
:10A84000BC422B7103D340F22D234CE700240AB104
:10A850002B791355013473692B71BC4203D340F239
:10A860002E2340E700240AB12B791355344B71692C
:10A870001970344B002101341970324B304819786B
:10A880000078884211D82D49096848782E49087007
:10A89000002119702B4B19782B4B1B78994238D318
:10A8A00025490B7801330B7010E7336953F82130D9
:10A8B000A7421B792B7103D840F2372313E70024FA
:10A8C0000AB12B7913551F4B30461978FFF7DCFD81
:10A8D00001341E4B2871BC42188003D340F23A2346
:10A8E00001E700240AB12B791355184B1B8801345A
:10A8F0001B0ABC422B7103D340F23B23F3E6002436
:10A900000AB12B7913550F490B78013301340B70C1
:10A91000B3E70723A7422B7103D84FF41173E2E684
:10A9200000240AB12B79135501340523BC422B7145
:10A930000FD340F24523D6E64530002048300020B2
:10A9400040300020463000204430002042300020BB
:10A9500000240AB12B7913552C4B2D491B6809781B
:10A960005878884204F101044DD998780B44BC42D0
:10A970001B5C2B7103D340F24923B4E600240AB1D7
:10A980002B79135501340323BC422B7103D340F2BE
:10A990004A23A8E600240AB12B7913550134402339
:10A9A000BC422B7103D340F24B239CE600240AB136
:10A9B0002B79135501340023BC422B7103D34FF480
:10A9C000137390E600240AB12B791355104B316BA9
:10A9D0001B780134CB5C2B71BC4203D340F24D2376
:10A9E00081E600240AB12B79135509490B7801330C
:10A9F00001340B704EE700232B60184618E7002344
:10AA000003601B78FFDE0023FBE700BF4830002017
:10AA1000463000201FB5037AA3B1827A012A00F1E3
:10AA2000090311D9C27A1344026A5878116852682E
:10AA30000191029201A900220392FEF7CBFF05B01B
:10AA40005DF804FB5B78FFDE00231B78FBE773B542
:10AA50000668CDE9001205466946406B00F0B2FB7E
:10AA6000044698B9F3685A0704D5FEF7B7FE2046A6
:10AA700002B070BDF3681B07F9D496F83430002B90
:10AA8000F5D12846FFF715FD0446F0E71124EEE75F
:10AA900010B50B46044658B90A6A126851781A680C
:10AAA00082F848101846DA6A02219047204610BD05
:10AAB0000320FCE7007D7047036953F821301868D4
:10AAC0007047036953F821309868104470470000BC
:10AAD0002DE9F041046891F8088005460E461F46AE
:10AAE000002C3ED06FF4F6731C44332C00F2D1815D
:10AAF000332C00F2CE81DFE814F046005200CC0186
:10AB0000CC01CC016E00CC017A0088009400A0003A
:10AB1000AC00B800CC01CC01C400D000DC00EA00DD
:10AB2000F6000201CC01CC01CC01CC01CC01CC015E
:10AB3000CC01CC012F01CC01CC0141014F01CC0152
:10AB4000CC01CC01CC01CC01CC01CC01CC01600109
:10AB50007901CC01CC01CC018F019B01A701B3018C
:10AB6000C2019C4B1C709B4B1B78434502D34FF496
:10AB7000097305E00923BC422B7105D340F2ED13A4
:10AB80002B600120A1E000240AB12B791355013478
:10AB90000423BC422B7103D34FF4F773F0E7002476
:10ABA0000AB12B7913558B4B317A1B788A4899421D
:10ABB00004F1010440F2718106F1090103EB430342
:10ABC00001EB030CBC42CB5CC0F800C02B7103D37B
:10ABD0004FF4F973D4E700240AB12B7913550134EB
:10ABE0000023BC422B7103D34FF4FA73C8E700244F
:10ABF0000AB12B791355784B1B6801345B782B71A4
:10AC0000BC4203D340F2F513BAE700240AB12B7912
:10AC1000135501340323BC422B7103D34FF4FB7350
:10AC2000AEE700240AB12B7913550134337E2B7122
:10AC3000BC4203D340F2F713A2E700240AB12B79F8
:10AC400013550134737E2B71BC4203D34FF4FC7354
:10AC500096E700240AB12B79135501340023BC4236
:10AC60002B7103D340F2F9138AE700240AB12B7940
:10AC7000135501340923BC422B7103D34FF4FE73E7
:10AC80007EE700240AB12B79135501342123BC42FD
:10AC90002B7103D340F2FD1372E700240AB12B7924
:10ACA000135501341123BC422B7103D34FF4FF73AE
:10ACB00066E700240AB12B79135501340120BC4208
:10ACC000287105D340F2FF132B60BDE8F08100240A
:10ACD0000AB12B79135501340023BC422B7103D3E5
:10ACE0004FF400734CE700240AB12B79135501345B
:10ACF00073692B71BC4203D340F2012340E7002467
:10AD00000AB12B791355354B71691970344B0021F9
:10AD100001341970324B314819780078884211D8C3
:10AD20002D49096848782F490870002119702C4B6B
:10AD300019782C4B1B78994238D326490B7801336C
:10AD40000B7010E7336953F82130A7421B792B7140
:10AD500003D840F20A2313E700240AB12B791355D4
:10AD60001F4B30461978FFF7A7FE01341E4B2871A0
:10AD7000BC42188003D340F20D2301E700240AB13E
:10AD80002B791355184B1B8801341B0ABC422B71BD
:10AD900003D340F20E23F3E600240AB12B791355B6
:10ADA0000F490B78013301340B70B3E70723A74237
:10ADB0002B7103D840F21723E2E600240AB12B7965
:10ADC000135501340523BC422B7110D34FF4067385
:10ADD000D6E600BF53300020583000204C30002011
:10ADE00054300020513000204E30002000240AB1A1
:10ADF0002B7913552C4B2D491B68097858788842BC
:10AE000004F101044DD998780B44BC421B5C2B71B2
:10AE100003D34FF40773B3E600240AB12B7913551B
:10AE200001340323BC422B7103D340F21D23A7E658
:10AE300000240AB12B79135501344023BC422B71F5
:10AE400003D340F21E239BE600240AB12B7913554D
:10AE500001340023BC422B7103D340F21F238FE641
:10AE600000240AB12B791355104B316B1B78013438
:10AE7000CB5C2B71BC4203D34FF4087380E60024F3
:10AE80000AB12B79135509490B78013301340B7042
:10AE90004DE700232B60184617E7002303601B785B
:10AEA000FFDE0023FBE700BF5830002054300020B5
:10AEB00038B5044654F8105B204600F0D1FB40350D
:10AEC0000823056043602046BDE8384000F0C8BB59
:10AED00037B50446FFF7ECFF216805684268383152
:10AEE0002846CDE900120AF0D7F9DDE9001218B1C1
:10AEF00028460AF00BFA012003B030BD036A30B5D2
:10AF00001A68002414701A685B6887B00132013B2C
:10AF100005460DF10300CDE9043403928DF803409A
:10AF2000FCF762FD204603A9FEF754FD044630B944
:10AF3000064B01A9CDE90135FFF712F804469DF84B
:10AF40000300FCF775FD204607B030BD91AA020052
:10AF50000A79012A0B4607D1C169D1E90012581CB0
:10AF6000013A0131FFF70EB8022A01D1016AF4E774
:10AF7000062070470B46014651F8102B0C3200F0AA
:10AF8000C7B9037A33B1837A00F1090223B1C37AD6
:10AF9000D05C70475B78FFDE1B78FCE7F0B50546B8
:10AFA00085B0FFF7EEFF2E680C366FF008010746FC
:10AFB0003046FDF765FF2846FFF78AFF0446E0B1FB
:10AFC0002846FFF775FF4368026802930DF10300FE
:10AFD0000023019203938DF80330FCF705FD01A9CE
:10AFE0003846FEF7F7FC044618B908213046FDF74D
:10AFF0002FFF9DF80300FCF71BFD204605B0F0BDB8
:10B00000FFF7CCBFF0B5044685B0FFF7BAFF25685F
:10B010000C356FF0080106462846FDF731FF204643
:10B02000FFF746FF0027026843680192204602931B
:10B030000397FFF74DFF0DF103008DF80370FCF748
:10B04000D3FC01A93046FEF7C5FC18B908212846F3
:10B05000FDF7FEFE9DF80300FCF7EAFC002005B0BA
:10B06000F0BD73B506680546FFF722FF0446426847
:10B07000006800210AF073F96268002106F14000BF
:10B080000AF06DF96268002106F138000AF067F9EC
:10B0900000230DF107008DF80730FCF7A5FC2846CA
:10B0A000FFF76FFF030601D501F0F2FF6FF0080113
:10B0B00006F10C00FDF7E4FE9DF80700FCF7B8FC74
:10B0C000002002B070BD0000014B00221A707047D2
:10B0D000523000202DE9F041DFF86C800768064609
:10B0E0000D46FFF7E5FE98F80040A4B1134A144856
:10B0F0001378296840F8331000EBC306013303F0DE
:10B100000F0313700F4A696813787160013313706D
:10B110000120BDE8F0814268294607F138000AF0B5
:10B12000F5F83046FFF73AFF10F0FF0004BFFC6867
:10B13000C4F3C00488F80040EBE700BFDD30002016
:10B140005C3000205030002052300020F7B50E4F08
:10B150003A780546A2B10D4E0D49337801EBC30C88
:10B1600051F83300DCF804106C46013303C403F0DB
:10B170000F03013A6946284633703A70FFF7AAFF79
:10B18000002003B0F0BD00BF50300020DC300020B4
:10B190005C300020026813685268934291BFD01A55
:10B1A00080680130801888BFC01A704703688168C2
:10B1B0001A685B688B4234BF01330023D31A5842AC
:10B1C0005841704773B5002304460DF107000D4642
:10B1D0008DF80730FCF708FC2046FFF7E7FF10B1B9
:10B1E000237C002B3BD12368A1685E685A688A42A1
:10B1F00034BF013200225A6028B11A688A4234BF33
:10B20000013200221A60E2686368511E072920D8C3
:10B21000DFE801F004101F141F1F1F182A789A5529
:10B220002046FFF7B7FF23689A68824200D29860F1
:10B23000002415E02A8823F81620F1E72A6843F84D
:10B240002620EDE7D5E9000103EBC603C3E90001C1
:10B25000E6E7294606FB02300AF058F8E0E7042446
:10B260009DF80700FCF7E4FB204602B070BD0368C0
:10B2700018685B68C31A58425841704773B5002379
:10B2800005460DF107000C4616468DF80730FCF711
:10B29000ABFB2846FFF7EBFF002832D12B6819687B
:10B2A0002EB91A68A868824238BF561C1E60EA6828
:10B2B0006B68501E07281ED8DFE800F0040E1D1230
:10B2C0001D1D1D165B5C237000249DF80700FCF714
:10B2D000AFFB204602B070BD33F811302380F3E796
:10B2E00053F821302360EFE703EBC103D3E90023D8
:10B2F000C4E90023E8E701FB023120460AF006F822
:10B30000E2E70524E1E70B46114603B11847704711
:10B310002DE9F04F0E46197885B0054614461F46B4
:10B320000E2900F28B80DFE811F00F006A005E0149
:10B33000630189007E002901890089008900890054
:10B34000690183019601980192F828300BB9002613
:10B3500065E002F11400B7F802C002F1080A4FF0EC
:10B360000A0B02461AF8013B40F2FF77BC454FEA50
:10B3700083030BD11768B7F5006F07D007F2FF778B
:10B38000B7FBF3FE03FB1E7701371760D4F8049078
:10B39000B9F1000F05D06FF008012046FDF770FDF0
:10B3A000D5E752F8047B94F829806744B7FBF3FE95
:10B3B00003FB1E77B3FBFBF302339F4217D204F16A
:10B3C0002403283413F8012B1AB1C0F800C003F885
:10B3D000019CB8F1000F03D0A34200F10400F1D1A9
:10B3E000B369DB69284605B0BDE8F04F1847B8F1EE
:10B3F000000FACD00131C9B20429B3D1A7E7104680
:10B400006FF00801FDF73CFD4FF40063C4E905331C
:10B4100000260122E361A66022732362268530465E
:10B4200005B0BDE8F08F7B78DA094FEA531861D098
:10B4300018F0030804D0B8F1010F3AD00626EEE761
:10B4400003F01F03012BF9D1BB78062BF6D197F837
:10B4500004A0FC78CDF8088003A8FEF7E9FFAAF164
:10B460002103012B8146E9D802AB00932246034613
:10B4700051462846FEF7AAF830B9029A4946781C88
:10B48000FEF780FD0646CAE7B36928461B69984760
:10B490008442D3D2B36921465B6928469847B36991
:10B4A0008146424621469B69284698474A460146BE
:10B4B000E5E7BB78022B0FD0032B17D0012BBDD1B2
:10B4C0003B79013B022BB9D8B3691B683946284642
:10B4D00005B0BDE8F04F1847F978083142462144DD
:10B4E000781C05B0BDE8F04FFEF74CBD424604F1B4
:10B4F0000C01F5E7B8F1010FA0D1BB780A2B0CD0F5
:10B500000B2B31D0092B99D13B79023B012B95D8DC
:10B51000B3695B68002BD9D190E7FB783A79E118E1
:10B520004FF400600A7204EB83014861A2B9637AA8
:10B53000002B7FF40CAFA37A002B7FF408AFE37AE3
:10B54000002B7FF404AF267A84F82930002E7FF494
:10B55000FEAE84F8286062E784F82880002B3FF470
:10B56000F6AE84F82980F2E6B7F80320003A18BF57
:10B5700001222273F169FFF7C6FEE8E697F902306F
:10B58000002B1EDAFB781BB9F1690322FFF7BBFE23
:10B590006368002B7FF4FFAE94F8291004F11403C4
:10B5A00024342246012053F8047BB7F5006F08BF0E
:10B5B000207019B1934204F10104F4D1B3699B687E
:10B5C0000CE0B369DB68002B3FF438AFFB781BB9A4
:10B5D000F1690222FFF797FEB369DB68284605B0E0
:10B5E000BDE8F04F184704212046FDF731FCAEE6D8
:10B5F0006FF004011046FDF743FCDFE7FEF74CF95E
:10B60000064600287FF40BAF2846FEF76BF9064686
:10B6100000287FF404AF4FF40063A0602085C4E9E4
:10B620000533E361236201212046FDF711FCF6E6B4
:10B63000FEF746F9064600287FF4F1AE2846FEF7ED
:10B6400059F9064600287FF4EAAE6FF00101204662
:10B65000FDF716FCE3E60221C6E76FF002019CE667
:10B66000C06870474069704710B50E4B53F82040D2
:10B6700023780BB9A01C10BD0020FEF7D9FE013CB9
:10B6800000235A1CA15C39B9DBB201335B00DBB289
:10B6900043F440730380EEE7D3B220F8131013464F
:10B6A000EFE700BFC4560300034608B9FFF7DCBF4D
:10B6B000012807D0022805D0032803D0042801D090
:10B6C000052809D1054800EB4303587820B1044B05
:10B6D00053F82030002BE9D100207047DC560300DE
:10B6E000C45603004FF08053D3F83001A0F1080393
:10B6F00058425841704700004FF08053D3F8302132
:10B70000082A06D1D3F83431052B02D8024AD05C7E
:10B7100070470020704700BFEE560300024AD2F87F
:10B720000034002BFBD0704700E0014010B5FFF75C
:10B73000D9FF40B14FF080430022C3F80C21C3F879
:10B740001021C3F83825FFF7CDFF002846D04FF071
:10B750008052654BD2F80414C3F82015D2F80814AF
:10B76000C3F82415D2F80C14C3F82815D2F8101415
:10B77000C3F82C15D2F81414C3F83015D2F81814E5
:10B78000C3F83415D2F81C14C3F84015D2F82014AD
:10B79000C3F84415D2F82414C3F84815D2F8281475
:10B7A000C3F84C15D2F82C14C3F85015D2F8301445
:10B7B000C3F85415D2F83414C3F86015D2F838140D
:10B7C000C3F86415D2F83C14C3F86815D2F84014D5
:10B7D000C3F86C15D2F84424C3F87025FFF78CFF2A
:10B7E00018B1424B424AC3F88C26FFF785FF18B1C7
:10B7F000404BFB22C3F81825FFF77EFF70B14FF0D6
:10B8000080414FF08053D1F8E42ED3F8583222F023
:10B810000F0203F00F031343C1F8E43EFFF76CFF80
:10B8200020B1354B4FF40072C3F84026FFF75AFFA2
:10B8300048B14FF08043D3F80024D20744BF6FF0E3
:10B840000102C3F800242D4AD2F8883043F4700373
:10B85000C2F88830BFF34F8FBFF36F8F4FF0805324
:10B86000D3F83021082A0ED1D3F83431052B02D871
:10B87000234AD35C3BB14FF01023D3F808224FF09A
:10B880008043C3F858254FF01023D3F80022002A34
:10B8900003DBD3F80432002B22DA1A4901234FF0DC
:10B8A0001020C1F804351224FFF738FFC0F8004219
:10B8B000FFF734FFC0F80442FFF730FF0023C1F860
:10B8C0000435FFF72BFFBFF34F8F0C490E4BCA68AF
:10B8D00002F4E0621343CB60BFF34F8F00BFFDE77C
:10B8E0000A4B0B4A1A6010BD00C0004000500040D7
:10B8F0004881030000F000400090024000ED00E0AD
:10B90000E856030000E001400400FA05842200200C
:10B910000090D00342DF704743DF704738B5074CD3
:10B92000051E04F1080318BF1C4623682BB11A68D2
:10B9300022605B6828469847F7E738BDE83000206A
:10B9400020B9054B01225A70FFF7E8BF012802D148
:10B95000014A9070F8E77047E030002020B9034BAF
:10B9600001225A70FFF7DABF704700BFE0300020B5
:10B9700038B50E4C2378B3B90D486360A3602361DA
:10B98000E36000F0DDF8054607F050FF08B900F06D
:10B99000E3F801232370074BD3F800340BB10123E4
:10B9A000A370284638BD8525F5E700BFE0300020AC
:10B9B00041B902000000014037B50D4C00230DF1E4
:10B9C00007008DF80730FCF70FF8E368013BE360F0
:10B9D000E36833B9074BD3F8005415B900F0D2F837
:10B9E000A5709DF80700FCF723F803B030BD00BF39
:10B9F000E030002000000140012813B50CD00328DE
:10BA000020D038B9134B0122C3F88020BFF34F8FE9
:10BA1000BFF36F8F02B010BD0F4C00230DF1070074
:10BA20008DF80730FBF7E0FF23780BB9FFF7A0FF95
:10BA3000E3689DF807000133E3600123A370FBF77F
:10BA4000F7FFE7E700F088F802B0BDE81040FFF725
:10BA5000B3BF00BF00E100E0E030002037B51B4C71
:10BA60006378054603F0FF029BB110B143680020E4
:10BA7000984700230DF107008DF80730FBF7B4FF5E
:10BA800063689DF8070001336360FBF7D1FF03B0E3
:10BA900030BD0DF107008DF80720FBF7A5FF25B19C
:10BAA000A268134653B92A60A5606368002BE7D1EA
:10BAB00007F0BCFE30B1FFF72DFFE1E79D42F4D067
:10BAC0001B68EFE700F06FF8DAE700BFE030002016
:10BAD00073B50F4C00230DF107008DF80730FBF70D
:10BAE00083FF6368013B6360666836B907F09EFEBA
:10BAF000054640B1FFF710FF66709DF80700FBF7A1
:10BB000097FF02B070BD00F05BF86570F5E700BF0D
:10BB1000E030002010B5034653E8000F00EA0102B0
:10BB200043E8002494F0000FF6D110BD00F18040EE
:10BB3000002382B0036003680193019B02B0704749
:10BB4000044A137923B90121106091801846704787
:10BB500085207047F4300020084B1A68D20704D4BF
:10BB6000C02283F8002301221A604FF08042012393
:10BB7000C2F81835024A1370704700BF00E100E0B8
:10BB8000FC3000204FF0804208B50223C2F8083391
:10BB90004FF48270FFF7CAFF0123D360D2F8183444
:10BBA000DB03FBD408BD08B54FF48070FFF7BEFF80
:10BBB0004FF080430122C3F804231A6008BD00003F
:10BBC0004FF08042012108B54FF48070C2F808138D
:10BBD000FFF7ACFF5160D2F80C3403F00113B3F15E
:10BBE000011FF8D0014B00225A7108BDF43000202B
:10BBF0004FF0804110B5D1F8003163B14FF480703F
:10BC0000FFF794FF0D4B58790122C1F8082310B9B2
:10BC10005A711B6898474FF08042D2F8043163B1E3
:10BC20004FF48270FFF782FF0223C2F80833034B00
:10BC3000BDE810401B680120184710BDF4300020FB
:10BC400000F1804000F5C040002382B0036003682B
:10BC50000193019B02B0704703681F2B83BF03F061
:10BC60001F03036001484FF0A040704700030050DD
:10BC700007B5019001A8FFF7EFFF019B00EB8300E0
:10BC8000D0F8003723F44033C0F80037D0F800373D
:10BC900043EA0141C0F8001703B05DF804FB00005F
:10BCA0002DE9FF470024CDE90244584D4FF480723E
:10BCB000012102F1804303F5C04390B21B68012BC0
:10BCC00006D1D5F804330B4202D0FFF7B9FF0C437D
:10BCD0000432B2F5907F4FEA4101EAD14B4BD3F8E1
:10BCE0007C31012B11D14FF4BE70FFF7A9FF4FF04B
:10BCF000A04344F00044D3F820250292C3F8202545
:10BD0000D3F820280392C3F82028E3B2D3B1404FE0
:10BD100001260025344210D0AB0003F1804303F527
:10BD2000C043D3F81005D3F8101557F8253023B1C8
:10BD3000C1F30141C0F3052098470135082D4FEAB2
:10BD40004606E7D1002C59DA314D324C324E4FF0D5
:10BD50000008012716F9013B5A1C3CD0C3F3C2016D
:10BD6000103169445FFA83F911F8081C03F03F02AF
:10BD700003F0070307FA03F319422CD001A801923C
:10BD8000FFF76AFF019B03F5E07350F82330C3F31C
:10BD9000014ABAF1020F0CBF032102211046FFF73E
:10BDA00067FF01A80192FFF757FF019B07FA03F312
:10BDB000C0F82035AB1893F9303055F8233053B123
:10BDC0004FEA9911032904D0BAF1020F19D10129C0
:10BDD00001D11046984708F10108B8F1040FB9D114
:10BDE0004FF0A043D3F820250292C3F82025D4F8C1
:10BDF00020350393C4F820351343A7D104B0BDE820
:10BE0000F087BAF1030FE6D10229E1E700600040B4
:10BE1000003100200003005060310020014B1B68FE
:10BE2000184700BF6C31002000F1804000F5E04071
:10BE3000002382B0036003680193019B02B0704746
:10BE4000F0B5524B524CD3F8043185B0002B3DD0A5
:10BE500094F82E204FF48270FFF7E6FF2AB394F88F
:10BE60002F3013BB494AD2F80031002B32D04FF4A7
:10BE70008070FFF7D9FF638B94F82D00834250D96F
:10BE800021891B1A9BB289B26383CB1A616801EBCB
:10BE90004303C2F82C36C2F830064FF48270FFF725
:10BEA000C3FF3A4B01225A6014E06368029323896E
:10BEB000ADF80C30E36800218DF8041033BB237417
:10BEC000236801A89847002384F82F3094F82E3077
:10BED000002BC7D12D4BD3F810315BB14FF48870D4
:10BEE000FFF7A2FF0023237402238DF8043001A87A
:10BEF00023689847254BD3F81431EBB14FF48A707F
:10BF0000FFF792FF0023237405B0F0BD208B608300
:10BF100063602081E160002AD2D11C4B01221A60AB
:10BF2000CEE7BAD1E368012184F82F1013B10021C4
:10BF30006183AEE76383B0E766694FF00047012590
:10BF4000002EE1D0B6FA86F227FA02F346329200CA
:10BF500026EA030602F1804303F5E0431B68002B49
:10BF6000EED01046A2F58C72FFF75EFFD30882F088
:10BF70000402C2F380028DF808308DF80450236863
:10BF80008DF8092001A89847DAE700BF007000404B
:10BF90007431002038B5204A92F82C300446002B2A
:10BFA00037D111601D490078C1F8F0056078C1F8FB
:10BFB000F4050125E078137482F82D30536182F87E
:10BFC0002F306FF0004382F82E0082F82C504FF48F
:10BFD0008270C1F80833FFF727FF4FF48070FFF736
:10BFE00023FF4FF48A70FFF71FFFA3780C485B0113
:10BFF000DBB280F80733802303600223C1F80433E7
:10C0000092F82E300BB1C1F80453C1F8005500204E
:10C0100038BD0820FCE700BF7431002000700040EC
:10C0200000E100E030B5224B1A7C002A3ED100F13D
:10C030000C0403EB4402127922B993F82D2001324B
:10C0400083F82D2003EB4403CA790C7A8D781A719A
:10C050005C714B782D021B0105F4E06503F03003A1
:10C060002B430D7805F003052B43CD782D0305F404
:10C0700080552B430D792D0405F4E0252B434D7994
:10C0800089792D0505F48015090601F080712B438F
:10C090000B43010101F1804101F5E0410020C1F8AD
:10C0A0001835C1F81445C1F8102530BD1120FCE742
:10C0B0007431002070B5324A147C04F0FF03002C68
:10C0C0005CD1304C012503261574C4F80863C4F80C
:10C0D0002C16C4F8305692F82D40AC420CD91D46AF
:10C0E000190101F1804101F5E0410133082BC1F84C
:10C0F0001455C1F81055F3D100F10C03000102EB07
:10C10000430300F1804000F5E04019795B79C0F805
:10C110001435C0F810151B4901230B604B6042F227
:10C120001073D1F8040108B9013BFAD14FF48070C3
:10C13000FFF77AFE4FF48270FFF776FE012C11D9DB
:10C140000F4800210B0103F1804303F5E043013167
:10C15000047F457FC3F814550829C3F8104500F142
:10C160000200EFD192F82E10064B29B103210020D6
:10C17000C3F80413107470BD0221F8E71120FAE728
:10C180007431002000700040020713D400F00F0348
:10C1900010F0800F084A0BBF03F5887303F5847312
:10C1A00002EB830352F8230008BF5868431E58422D
:10C1B00058417047002070470070024010F0080F8F
:10C1C000074B06D0D3F8C00410F4803F18BF0020FE
:10C1D000704700F00F0000F5947053F8200070478E
:10C1E000007002404FF08053D3F83001A0F10803F3
:10C1F00058425841704700004FF08053D3F8302127
:10C20000082A06D1D3F83431052B04D8034AD05C70
:10C210007047002070470120704700BFF4560300AC
:10C2200030B54C680D689C4229BFC0E9005300211D
:10C23000E41AED1832BFC0E900514C600D60934222
:10C2400003D1201E18BF012030BD0020FCE74B6841
:10C2500010B59A420C6828BF1A46C0E90042981AE5
:10C260000B6848601A4400380A6018BF012010BDEE
:10C2700030B54C680B68A24228BF2246002A14BF82
:10C280001D460025C0E90052A4EB02041A444C608C
:10C290000A6014BF0120002030BD0000054B10F0E3
:10C2A000800FA3F1900208BF134600F00F0003EBCC
:10C2B000001070471833002010F0800F14BF0023C7
:10C2C000102300F00F0018447047000008B5FFF776
:10C2D00089FF18B1034B0022C3F81C2C024B00222B
:10C2E0001A7008BD00700240A531002007B5094A48
:10C2F00000231370084AADF8053013708DF807302D
:10C3000001238DF80430054B01A81B68984703B042
:10C310005DF804FBA4310020AC330020A8330020DA
:10C32000704700004B68934228BF134670B51D4606
:10C33000094B0C4606462A460968184608F0E6FFEF
:10C34000C6E9000560682268401B60602A44003826
:10C35000226018BF012070BDB03300204B689342AB
:10C3600028BF134670B506460D461C468BB10A4BD6
:10C3700009682246184608F0C9FF30606B6874608F
:10C380001B1B6B602B68201E23442B6018BF0120F1
:10C3900070BD0360F2E700BFB033002007B5002393
:10C3A0000DF107008DF80730FBF71EFB0B4BD3F8A0
:10C3B000001C032271B949F27531C3F8001CC3F89F
:10C3C000142DC3F8001C9DF80700FBF731FB03B0E8
:10C3D0005DF804FBC3F8142DF5E700BF00E006404C
:10C3E00013B500240DF107008DF80740FBF7FCFAA8
:10C3F0000A4BD3F8001C69B949F27532C3F8002C16
:10C40000C3F8141DC3F8002C9DF80700FBF710FBC0
:10C4100002B010BDC3F8144DF6E700BF00E00640BF
:10C4200008B50146FFF752FF0846FFF737FF827B4A
:10C43000032A0AD10846FFF73FFF01218140BDE8EA
:10C4400008400448C943FFF765BB0368002BF1D0DF
:10C4500008BD00BF143200208720FFF7E1BF86200F
:10C46000FFF7DEBF8520FFF7DBBF8420FFF7D8BFD3
:10C470008320FFF7D5BF8220FFF7D2BF8120FFF7CF
:10C48000CFBF000008B5FFF721FF084B93F89E20AF
:10C49000032A06D1BDE8084005486FF00101FFF707
:10C4A00039BBD3F89030002BF4D008BD883200207F
:10C4B00014320020012273B502FA01F51E491F4E05
:10C4C0000B6810F0800F43EA050304460B6027D089
:10C4D00000F00F021A4B33F8123003F1804303F5DA
:10C4E0001C331A684AB100221A60BFF36F8FBFF382
:10C4F0004F8F802811D0FFF793FF316829400AD170
:10C5000006238DF804308DF806408DF807100D4B8A
:10C5100001A81B68984702B070BDFFF7B3FFECE7B6
:10C5200033681D42F7D106238DF804308DF80600DC
:10C530008DF80720EBE700BF843200201432002082
:10C5400004570300A833002008B5054B1A7810469D
:10C55000FFF7B2FEBDE8084001461046FFF7AABF4C
:10C56000AC330020FFF78EBF07B500238DF80430F1
:10C570000B4BD3F82025ADF80620D3F8C034094A78
:10C58000002B13680CBF4FF480714FF001210B4357
:10C590001360054B01A81B68984703B05DF804FBC6
:10C5A0000070024084320020A833002007B5FFF756
:10C5B0008DFE0D4B93F88E20032A11D0D3F88030D6
:10C5C00073B90A486FF08071FFF7A4FA06238DF85B
:10C5D00004300823ADF80630054B01A81B689847C6
:10C5E00003B05DF804FB00BF883200201432002045
:10C5F000A833002007B5FFF769FE114B93F81E2101
:10C60000032A07D10F486FF4807103B05DF804EB83
:10C61000FFF780BAD3F8103173B90A486FF480710C
:10C62000FFF778FA06238DF804308823ADF806303A
:10C63000054B01A81B68984703B05DF804FB00BFD9
:10C640008832002014320020A83300202DE9F04F5A
:10C650005D4E337885B0002B6DD15C4C5C4B196816
:10C660002368194067D011F0012367D093FAA3F132
:10C67000002966D0B1FA81F10F2964D9A1F110081F
:10C680005FFA88F84046FFF709FE4FF0010B4FFABA
:10C6900088FA0BFA01F1BAF1000F81466FEA010B3B
:10C6A00054DA03688289416802A8984708B9C9F832
:10C6B0000000FFF797FD18B1464B8222C3F81C2CEF
:10C6C00001232168039A3370D9F8083001EA0B017D
:10C6D0001344BAF1000F2160C9F8083008F00800CF
:10C6E00002993C4B08F00F085EDA002854D0C3F8DA
:10C6F000A016C3F8A426042303EB880303F18043A8
:10C7000003F51C3301221A60BFF36F8FBFF34F8F05
:10C71000314B324A2F4913EA2A0338BF134633F804
:10C72000183003F1804303F51C331A681AB9D1F8A5
:10C730000021002AF9D005B0BDE8F08F91FAA1F1EF
:10C7400096E720219AE741F080089BE74046FFF7F3
:10C7500035FDB9F80C20D9F80410D9F8005003467B
:10C76000074602A8A847029A002A9FD0039A974238
:10C770009CD9022789F80E7059461548FFF7CAF967
:10C7800006238DF80430164B8DF806801B688DF853
:10C79000077001A8984761E7142000FB0833C3F82D
:10C7A0000016C3F80426A6E728B1C3F8A017C3F8FB
:10C7B000A4272823A0E7142000FB0833C3F80017A0
:10C7C000C3F80427F5E700BFA5310020843200201C
:10C7D0001432002000700240045703002057030069
:10C7E000A833002037B50446FFF770FD2046FFF759
:10C7F00055FD837B032B0DD12046FFF75DFD012105
:10C800008140C9430F48FFF785F903B0BDE83040C8
:10C81000FFF71CBF0568002DF7D12046FFF74CFD40
:10C8200001218140C9430748FFF774F906238DF8B9
:10C830000430054B8DF806401B688DF8075001A8A1
:10C840009847E2E714320020A83300200720FFF7C2
:10C85000C9BF0620FFF7C6BF0520FFF7C3BF0420EE
:10C86000FFF7C0BF0320FFF7BDBF0220FFF7BABF2D
:10C870000120FFF7B7BF000038B5134BD3F86C4465
:10C88000C3F86C44BFF36F8FBFF34F8F01251CB902
:10C89000BDE83840FFF7DABE94FAA4F171B1B1FAFD
:10C8A00081F30F2B19460BDDA1F11000C0B205FA80
:10C8B00001F324EA0304FFF7FDFDE8E72021F3E795
:10C8C00043F08000F3E700BF00700240254B13B532
:10C8D000D3F80044C3F80044BFF36F8FBFF34F8F0A
:10C8E000BFF36F8FBFF34F8FE1050ED51E4B0122B3
:10C8F0001A700023ADF805308DF8073002238DF84B
:10C9000004301A4B01A81B689847A2050DD5164A9A
:10C9100000231370ADF805308DF8073003238DF830
:10C920000430124B01A81B689847630518D50E4ABE
:10C930001378ABB1002313700A4A0121C2F808151D
:10C940009165BFF36F8FBFF34F8FADF805308DF852
:10C95000073004238DF80430044B01A81B68984766
:10C9600002B010BD00700240A4310020A8330020A6
:10C97000024A00231360024A13707047A833002054
:10C98000A63100204A4B4FF4006213B5C3F80024CF
:10C99000BFF36F8FBFF34F8FFFF72EFC08B1FFF788
:10C9A000FDFCFFF71FFCC0B100230DF107008DF85F
:10C9B0000730FBF719F83F4BD3F8001CC0220029C1
:10C9C0006ED149F27531C3F8001CC3F8142CC3F8BA
:10C9D000001C9DF80700FBF72BF8354B0122C3F82C
:10C9E0000025BFF36F8FBFF34F8FD3F800241205DC
:10C9F000FBD54FF40062C3F80024BFF36F8FBFF381
:10CA00004F8FFFF7EFFBB8B100240DF107008DF851
:10CA10000740FAF7E9FF274BD3F8001C002942D161
:10CA200049F27532C3F8002CC3F8141CC3F8002C6B
:10CA30009DF80700FAF7FCFFFFF7DEFB30B1FFF7C8
:10CA4000CFFCFFF7D9FB08B1FFF7A8FCFFF7CAFB43
:10CA5000174B50B140F2E372C3F800284022C3F8EC
:10CA60000428BFF36F8FBFF34F8F00218022C3F8DC
:10CA70001C25C3F83015104B40F2FF121A600F4B03
:10CA80001960FFF723FC0E4B19700E4B02221A702F
:10CA9000FFF7B2FB50B102B0BDE81040FFF7A0BCF9
:10CAA000C3F8142C95E7C3F8144CC1E702B010BDCD
:10CAB0000070024000E00640843200201432002062
:10CAC000AC330020A63100200C4B00221A700C4A17
:10CAD0000C4B002818BF13460B4AC2F804330B4B0B
